:100000000C9462000C948A000C948A000C948A0070
:100010000C948A000C948A000C948A000C948A0038
:100020000C948A000C948A000C948A000C948A0028
:100030000C948A000C9497060C948A000C948A0005
:100040000C942E050C948A000C948A000C948A005F
:100050000C948A000C948A000C948A000C948A00F8
:100060000C9478050C948A00000000002300260000
:10007000290000000008000201000003040700003E
:1000800000000000000000000000250028002B00F8
:1000900000000000240027002A00040404040404D3
:1000A0000404020202020202030303030303010227
:1000B00004081020408001020408102001020408F6
:1000C0001020BE0611241FBECFEFD8E0DEBFCDBF8B
:1000D00011E0A0E0B1E0E8E7F9E102C005900D927F
:1000E000A035B107D9F722E0A0E5B1E001C01D922B
:1000F000A634B207E1F710E0C2E6D0E004C02197D1
:10010000FE010E94D509C136D107C9F70E94DF065A
:100110000C94BA0C0C94000008950895AF92BF920D
:10012000CF92DF92EF92FF920F931F93CF93DF93C3
:100130006C017B018B01040F151FEB015E01AE18F2
:10014000BF08C017D10759F06991D601ED91FC9114
:100150000190F081E02DC6010995892B79F7C50141
:10016000DF91CF911F910F91FF90EF90DF90CF9093
:10017000BF90AF900895833081F028F4813099F0DA
:100180008230A9F008958730A9F08830C9F0843012
:10019000B1F4809180008F7D03C0809180008F77C3
:1001A00080938000089584B58F7784BD089584B5C9
:1001B0008F7DFBCF8091B0008F778093B000089542
:1001C0008091B0008F7DF9CF1F93CF93DF93282FBD
:1001D00030E0F901EE58FF4F8491F901E255FF4FED
:1001E000D491F901E656FF4FC491CC23A9F0162F04
:1001F00081110E94BB00EC2FF0E0EE0FFF1FEA57C9
:10020000FF4FA591B4918FB7F894EC91111108C0EC
:10021000D095DE23DC938FBFDF91CF911F9108959E
:10022000DE2BF8CF8E50806480937C0080917A0022
:10023000806480937A0080917A0086FDFCCF809163
:1002400078009091790008953FB7F8948091B901B2
:100250009091BA01A091BB01B091BC0126B5A89BB9
:1002600005C02F3F19F00196A11DB11D3FBFBA2F48
:10027000A92F982F8827BC01CD01620F711D811D08
:10028000911D42E0660F771F881F991F4A95D1F78D
:1002900008958F929F92AF92BF92CF92DF92EF928A
:1002A000FF924B015C010E9424016B017C010E94C2
:1002B00024016C197D098E099F09683E73408105F0
:1002C0009105A8F321E0821A9108A108B10888EEEF
:1002D000C80E83E0D81EE11CF11C81149104A10416
:1002E000B10429F7FF90EF90DF90CF90BF90AF90CF
:1002F0009F908F900895089520919101260F3327A4
:10030000331F21323105ECF420910102FC0190E011
:1003100080E0243069F082E00895A091910121915C
:10032000AC014F585E4FA40FB52FB11D2C93019611
:10033000861798F380919101680F6093910180E096
:10034000089581E008951092010281E080930002F7
:100350001092DB0161E082E10E94E40061E083E150
:100360000E94E400E9EBF0E080818E7F8083808151
:100370008D7F808388E48093B80085E48093BC00FF
:100380000895CF93DF9391E0909370018823B9F0A3
:10039000C091B800D091BA008091BC008A7B809354
:1003A000BC0060E082E10E94E40060E083E10E9422
:1003B000E4000E94A301D093BA00C093B800DF917B
:1003C000CF910895CF92DF92EF92FF920F931F93F8
:1003D000CF93DF93D0912A0281E0D13208F09CC004
:1003E000C09129020E9424016B017C0180910102CD
:1003F00081116CC082E08093010281E08093000251
:100400008FEF8093FF011092FE01D093FD01A9E0D0
:10041000B2E0EDEDF1E080E0D8138DC01092DC0188
:100420008091DC01CC0FC82BC093DC018091DB01F3
:10043000813009F084C01092DB010E9424016B011D
:100440007C018091DC018093BB008091030290913C
:100450000402A0910502B0910602892B8A2B8B2BF6
:10046000A1F00E9424010091030210910402209146
:100470000502309106026C197D098E099F09061745
:1004800017072807390708F442C08091BC0083FD94
:10049000D8CF85EC8093BC000E9424016B017C01C5
:1004A00080910102823009F44CC08091FF018F3F9E
:1004B00009F469C08091FF01803209F466C080911F
:1004C000FF01803309F463C084E026C080910302F9
:1004D00090910402A0910502B0910602892B8A2B0B
:1004E0008B2B09F483CF0E94240100910302109109
:1004F000040220910502309106026C197D098E09D3
:100500009F09061717072807390708F06FCF809152
:1005100002020E94C10185E01092080210922A0294
:1005200010920702DF91CF911F910F91FF90EF90F2
:10053000DF90CF9008959D9191938F5F6DCF85EE61
:10054000A9CF8091030290910402A0910502B0917D
:100550000602892B8A2B8B2B09F4A2CF0E9424013F
:1005600000910302109104022091050230910602CD
:100570006C197D098E099F09061717072807390787
:1005800008F08ECFC4CF80E0C7CF82E0C5CF83E034
:10059000C3CF0895E091C2018091C101E81730F402
:1005A000F0E0E05BFE4F808190E008958FEF9FEFD9
:1005B00008959091C2018091C1012FEF3FEF9817EC
:1005C00048F4E92FF0E0E05BFE4F208130E09F5FD0
:1005D0009093C201C90108958091C1019091C20117
:1005E000891B990B0895CF92DF92EF92FF920F93A0
:1005F0001F93CF93DF937C01CB018A0120910702E7
:10060000222389F0EB016B01C40ED51ECC15DD054C
:1006100069F06991D701ED91FC910190F081E02D95
:10062000C7010995F3CF642F0E947C01C801DF91B7
:10063000CF911F910F91FF90EF90DF90CF90089591
:10064000CF93DF931F92CDB7DEB769832091070266
:100650002223F9F020912A02203258F021E030E0E4
:10066000FC013383228390E080E00F90DF91CF91F3
:10067000089580910802E82FF0E0E75FFD4F99812F
:1006800090838F5F8093080280932A0281E090E03C
:10069000ECCF61E0CE0101960E947C01F7CFCF93B1
:1006A000DF93EB01FC01828591E090930702809338
:1006B00029021092080210922A0268818BE292E0CD
:1006C0000E94200365E070E080E090E00E94490114
:1006D00069818BE292E00E94200365E070E080E097
:1006E00090E00E944901DF91CF910C94E201CF93F9
:1006F000DF9300D01F92CDB7DEB71B8290E89983BD
:10070000806C8A83BE016F5F7F4F87E392E00E9417
:100710004F030F900F900F90DF91CF910895CF93DB
:10072000DF9300D01F92CDB7DEB71B8290E899838C
:100730008A83BE016F5F7F4F87E392E00E944F0381
:100740000F900F900F90DF91CF91089581E00E945C
:100750008F038BE39FE10197F1F70895CF93DF9328
:1007600000D01F92CDB7DEB71B8220E429836A83B5
:10077000BE016F5F7F4F0E944F0381E090E00F90BA
:100780000F900F90DF91CF910895CF93C62F909146
:10079000420221E02093070290932902109208025E
:1007A00010922A02682F8BE292E00E9420036C2FA5
:1007B0008BE292E00E942003CF910C94E20190E042
:1007C00080E00895CF93DF93EFE7F0E08491EBEBC7
:1007D000F0E0D491E7EAF0E0C491CC2379F0811104
:1007E0000E94BB00EC2FF0E0EE0FFF1FE859FF4F17
:1007F000A591B491EC91ED2361E009F460E081E012
:1008000068278DE00E94E4008091C5019091C601A7
:100810000197D9F48091C7019091C80101979093F5
:10082000C8018093C7018091C7019091C801892BAD
:1008300061F482E090E09093C6018093C50161E08D
:100840008CE0DF91CF910C94E400DF91CF9108957B
:100850008F929F92AF92BF920F931F93CF93DF938C
:10086000CDB7DEB7A1970FB6F894DEBF0FBECDBFF0
:1008700019A2423008F44AE08E010F5D1F4F842E0A
:10088000912CB12CA12CA50194010E949F09E62F67
:10089000B901CA01EA3044F5E05DD801EE938D015B
:1008A000232B242B252B79F790E080E0109769F01B
:1008B000FD0101900020E9F73197AF014A1B5B0B66
:1008C000BD0187E392E00E948E00A1960FB6F894D6
:1008D000DEBF0FBECDBFDF91CF911F910F91BF90B3
:1008E000AF909F908F900895E95CD7CFFC01019065
:1008F0000020E9F73197AF01481B590BBC0187E392
:1009000092E00C948E00CF92DF92EF92FF92CF9301
:10091000DF936C01990FEE08FF08F7FE19C06DE236
:1009200087E392E00E94AE03EC0166277727CB01B4
:100930006C197D098E099F094AE00E9428048C0FDA
:100940009D1FDF91CF91FF90EF90DF90CF900895A2
:100950004AE0C701B601DF91CF91FF90EF90DF90A1
:10096000CF900C942804ECE3E69F9001E79F300DB4
:100970001124820F931F60E17EE0469F9001479F04
:10098000300D569F300D1124820F931F9093C80194
:100990008093C7010E94A60364EF71E080E090E0BD
:1009A0000E9449018091C7019091C8010E9483046F
:1009B00081E090E09093C6018093C501E1E8F0E00A
:1009C00080E180831092800082E19AE79093870013
:1009D0008093860084E1808382EE93E09093C4014B
:1009E0008093C30181E080936F00089585ED80932B
:1009F000BC008091030290910402A0910502B09185
:100A000006020796A11DB11D23E0B695A7959795FF
:100A100087952A95D1F72091BC0024FD03C0109240
:100A20000102089540910302509104026091050271
:100A300070910602452B462B472B69F30097A105C1
:100A4000B10541F025E32A95F1F700000197A109CE
:100A5000B109E1CF809102020C94C1011F920F9263
:100A60000FB60F9211242F933F938F939F93AF93C1
:100A7000BF938091B5019091B601A091B701B0915B
:100A8000B8013091B40123E0230F2D3758F50196BA
:100A9000A11DB11D2093B4018093B5019093B601BF
:100AA000A093B701B093B8018091B9019091BA01B8
:100AB000A091BB01B091BC010196A11DB11D809315
:100AC000B9019093BA01A093BB01B093BC01BF914F
:100AD000AF919F918F913F912F910F900FBE0F90EB
:100AE0001F90189526E8230F0296A11DB11DD2CFA5
:100AF0001F920F920FB60F9211242F933F934F9393
:100B00005F936F937F938F939F93AF93BF93EF9375
:100B1000FF938091B900887F803609F44AC0F0F5D0
:100B2000883209F4A7C018F5803109F49BC0B8F4E5
:100B3000882309F4F9C0883009F494C0FF91EF913B
:100B4000BF91AF919F918F917F916F915F914F91E5
:100B50003F912F910F900FBE0F901F9018958831E5
:100B600009F488C0803251F78093FF0114C08034AB
:100B700009F49DC040F48033B9F38833F9F68093CB
:100B8000FF0185ECB0C0803509F485C0883509F4D3
:100B900096C0883499F60E94F604D0CF883909F4BB
:100BA0008CC038F5883729F050F4883611F080373A
:100BB00029F683E0809301021092B30157C0883870
:100BC00009F47BC0803919F0803809F0B7CF8091E3
:100BD000B301803208F071C0E091B30181E08E0F63
:100BE0008093B3018091BB00F0E0ED56FE4F80830F
:100BF0003DC0803B39F0E0F4803A09F479C0883A8E
:100C000009F09CCF84E0809301021092920110922F
:100C10009101E091BF01F091C0010995809191018E
:100C200081110FC081E0809391011092710109C080
:100C3000803C09F4A6CF883C09F4A3CF883B09F097
:100C40007DCFE091920181E08E0F80939201F0E0E0
:100C5000EF58FE4F80818093BB009091920180916C
:100C6000910129C08091DC018093BB0085EC8093C9
:100C7000BC0064CF9091FE018091FD01981758F55A
:100C8000E091FE0181E08E0F8093FE01F0E0E352DF
:100C9000FE4F8081E9CFE091FE0181E08E0F8093CD
:100CA000FE018091BB00F0E0E352FE4F8083909103
:100CB000FE018091FD019817C8F285E8D8CFE09138
:100CC000FE0181E08E0F8093FE018091BB00F0E079
:100CD000E352FE4F80838091000281115CCF81E05E
:100CE0008093DB0184EA8093BC001092010226CF3E
:100CF00085EC8093BC00109201028091B301803298
:100D000030F4E091B301F0E0ED56FE4F10826091B7
:100D1000B30170E0E091BD01F091BE0183E991E083
:100D200009951092B3010ACF1092FF0134CF1F92A0
:100D30000F920FB60F9211242F933F934F935F930F
:100D40006F937F938F939F93AF93BF93EF93FF9393
:100D5000E091C301F091C4010995FF91EF91BF911A
:100D6000AF919F918F917F916F915F914F913F9143
:100D70002F910F900FBE0F901F901895EBE2F2E0AD
:100D80001382128288EE93E0A0E0B0E08483958322
:100D9000A683B78384E091E091838083E7E3F2E068
:100DA0001382128286E191E0918380838EE38287B1
:100DB00080E6838780E1848782E085870895789440
:100DC00084B5826084BD84B5816084BD85B5826050
:100DD00085BD85B5816085BD80916E008160809301
:100DE0006E0010928100809181008260809381006A
:100DF000809181008160809381008091800081607A
:100E0000809380008091B10084608093B1008091D4
:100E1000B00081608093B00080917A0084608093FC
:100E20007A0080917A00826080937A0080917A00C3
:100E3000816080937A0080917A00806880937A0044
:100E40001092C100EBEBF0E02491E7EAF0E084912E
:100E5000882399F090E0880F991FFC01E057FF4F1D
:100E6000A591B491FC01EA57FF4F859194918FB7FA
:100E7000F894EC91E22BEC938FBF1092C201109288
:100E8000C1011092080210922A020E94A3018CE86C
:100E900090E09093C0018093BF018DE890E0909323
:100EA000BE018093BD0110923B02809144028230CA
:100EB00018F098E090933B0280933F02109240021A
:100EC00062E370E080E090E00E94490180913B0283
:100ED00080620E948F0365E070E080E090E00E94F5
:100EE000490180913B0280620E948F0365E070E0BF
:100EF00080E090E00E94490180913B0280620E9464
:100F00008F0384E080933C028CE00E948F030E9458
:100F1000A60382E080933D0286E00E948F0360E09A
:100F200080E00E94C5036FEF88E00E94C50360E285
:100F300081E00E94C5036FEF84E00E94C5036FEF5C
:100F400083E00E94C5036FEF82E00E94C5036FEF4C
:100F500084E00E94C50360E083E00E94C50360E076
:100F600082E00E94C5038EE191E00E94760468EE63
:100F700073E080E090E00E9449010E94A60385E2B0
:100F800091E00E94760464EF71E080E090E00E94BE
:100F900049010E94A6036BE271E081ED91E00E949D
:100FA000DB0981ED91E00E94760462E081E00E941D
:100FB000770328E3622E21E0722E31ED832E31E09B
:100FC000932ECC24CA9443E0D42EAA24A394B12C0B
:100FD0008CE3382E98E1292E62E081E00E947703AD
:100FE0001F921F921F921F921F921F927F926F92C9
:100FF0009F928F920E94E20981ED91E00E94760417
:101000008EE00E9412019093D0018093CF01815F06
:1010100093402DB73EB7265F3F4F0FB6F8943EBFC3
:101020000FBE2DBF049720F4B092CE01A092CD0147
:10103000F12CE12C10E000E0D0E0C0E04090CD01C8
:101040005090CE0131E04316510409F04DC18EE0BD
:101050000E9412019093D0018093CF0162E081E061
:101060000E947703FF92EF921F930F93DF93CF932A
:101070007F926F929F928F920E94E20981ED91E0A0
:101080000E9476048091CF019091D001815F9340BE
:101090002DB73EB7265F3F4F0FB6F8943EBF0FBE49
:1010A0002DBF049718F55092CC014092CB0180914E
:1010B000CB019091CC01019781F48EE00E94120146
:1010C0009093D0018093CF01815F9340049778F390
:1010D0001092CC011092CB01EACF8091C90190917E
:1010E000CA0101969093CA018093C9018091C901F8
:1010F0009091CA018130910511F00497A9F58FE014
:101100000E9412019C01329EC001339E900D112459
:10111000B6010E948B09EB0177FF02C0C05CDF4F74
:1011200061E081E00E947703CA30D10524F486E4AF
:1011300091E00E947604CE010E9483048EE00E941A
:1011400012019093D0018093CF019C01215F334025
:101150002430310548F08F5C9340049738F6A7019E
:10116000B801CE010E94B3048091C9019091CA01D7
:101170000297A9F58FE00E9412019C01329EC001E6
:10118000339E900D1124B6010E948B098B0177FFCD
:1011900002C0005C1F4F61E086E00E9477030A30C6
:1011A000110524F486E491E00E947604C8010E94AF
:1011B00083048EE00E9412019093D0018093CF01AE
:1011C0009C01215F33402430310548F08F5C93400F
:1011D000049750F6A701B801CE010E94B304809194
:1011E000C9019091CA010397B9F58FE00E941201DD
:1011F0009C01229EC001239E900D1124B6010E94E5
:101200008B097B0177FF03C03CE1E30EF11C61E039
:101210008AE00E9477038AE0E816F10424F486E469
:1012200091E00E947604C7010E9483048EE00E9430
:1012300012019093D0018093CF019C01215F334034
:101240002430310548F08F5C9340049740F6A701A5
:10125000B801CE010E94B3048091CF019091D001DA
:101260008F5C9340049708F047C0309EC001319EC8
:10127000900D1124C80FD91F20E13EE0E29EC0016D
:10128000E39E900DF29E900D1124C80FD91FD093AC
:10129000C801C093C7010E94A60364EF71E080E01B
:1012A00090E00E9449018091C7019091C8010E947D
:1012B0008304B092C601A092C50180E180938100B1
:1012C0001092800082E19AE79093870080938600D5
:1012D00084E18093810082EE93E09093C401809337
:1012E000C30181E080936F0080E090E0892B09F4D6
:1012F00073CE0E9400006CCE8091C9019091CA010A
:10130000049724F0B092CA01A092C90188E491E048
:101310000E94760493CE97FB072E16F4009407D014
:1013200077FD09D00E94C10907FC05D03EF49095D5
:1013300081959F4F0895709561957F4F0895A1E223
:101340001A2EAA1BBB1BFD010DC0AA1FBB1FEE1F3F
:10135000FF1FA217B307E407F50720F0A21BB30B8A
:10136000E40BF50B661F771F881F991F1A9469F706
:1013700060957095809590959B01AC01BD01CF0162
:101380000895AA1BBB1B51E107C0AA1FBB1FA617CC
:10139000B70710F0A61BB70B881F991F5A95A9F71E
:1013A00080959095BC01CD010895EE0FFF1F05902B
:1013B000F491E02D0994FB01DC0101900D920020D5
:1013C000E1F70895AEE0B0E0E8EEF9E00C94910C9E
:1013D0000D891E8986E08C831A8309838FEF9FE72E
:1013E0009E838D83AE01475E5F4F6F89788DCE01FE
:1013F00001960E94050A2F813885020F131FF801FC
:1014000010822E96E4E00C94AD0CABE0B0E0EBE083
:10141000FAE00C94830C7C013B018A01FC011782E9
:101420001682838181FFC8C1CE0101965C01F7015C
:101430009381F30193FD859193FF81913F0188236F
:1014400009F453C1853239F493FD859193FF81915D
:101450003F01853229F4B70190E00E94F50BE7CFF8
:10146000912C212C312CFFE1F31538F08B3211F146
:1014700090F4803209F1833229F137FC3CC020ED31
:10148000280F2A3050F536FE20C08AE0989E200DA5
:101490001124922E06C08D3291F0803371F768943A
:1014A00030F8F30193FD859193FF81913F01811104
:1014B000DACF21C0689431F8689432F8F2CF68949A
:1014C00033F8EFCF689434F8ECCFEAE02E9E200D8D
:1014D0001124222E689435F8E4CF8E3229F436FC9C
:1014E00004C1689436F8DDCF8C3619F4689437F867
:1014F000D8CF8836B1F2982F9F7D95549330E0F085
:101500008336A1F18337C1F1833509F063C0280127
:10151000F2E04F0E511CF801C080D180692D70E0BF
:1015200036FC02C06FEF7FEFC6010E94DF0B4C015B
:10153000689437F882010AC00C5F1F4FFFE3F983FC
:1015400088248394912C6501E89437F833FE2DC0EC
:10155000522C8114910471F5552009F468CFB7011C
:1015600080E290E00E94F50B5A94F6CFF80180815A
:1015700089830E5F1F4FE4CF2801F2E04F0E511C0C
:10158000F801C080D180692D70E036FC02C06FEF99
:101590007FEFC6010E94EA0B4C018201D5CFB70153
:1015A00080E290E00E94F50B2A942814190409F0B7
:1015B000B0F7CECFF60137FC859137FE81916F01F0
:1015C000B70190E00E94F50B51105A94F1E08F1A88
:1015D0009108BFCF843619F0893609F077C0F80139
:1015E00037FE6BC060817181828193810C5F1F4FD8
:1015F000F32DFF763F2E97FF09C09095809570954B
:1016000061957F4F8F4F9F4F689437F82AE030E005
:10161000A5010E94250CC82ECA188C2C432C36FE1E
:101620000CC0E89440F8C91440F434FE05C032FC04
:1016300003C0F32DFE7E4F2E892C44FE95C0FE0183
:10164000EC0DF11D8081803309F087C0242D297EA7
:10165000422E842D8870582E43FC95C040FE8FC0CA
:101660009C2C821418F42C0C922C981844FE91C0D7
:10167000B70180E390E00E94F50B42FE09C088E7C5
:1016800090E041FE02C088E590E0B7010E94F50BB2
:10169000C91408F48AC0CA94D12C9FEFC91AD90A78
:1016A000CA0CDB1CF60182916F01B70190E00E9429
:1016B000F50BAC14BD04B1F74FCF60817181072EDB
:1016C000000C880B990B0E5F1F4F92CFD32CE89420
:1016D000D4F82AE030E0853739F1232D297FD22E46
:1016E0008F3601F148F48835A9F0F701868197819A
:1016F0002B96E2E10C949F0C803749F08837A9F7CC
:10170000D4FE02C06894D2F820E130E00DC06894A5
:10171000D4F8F6CF34FE03C0822F8660D82E20E1A5
:1017200032E002C028E030E0F801D7FE0FC060814F
:101730007181828193810C5F1F4FA5010E94250C4E
:10174000C82ECA183D2CE89437F867CF60817181A4
:1017500090E080E00E5F1F4FF0CF42FC02C0839408
:1017600078CF8394839475CF842D867809F471CFD4
:10177000F6CFB70180E290E00E94F50B83948214CB
:10178000C0F3512C73CF522C5818821408F46ECF2A
:10179000F8CF842D867809F47BCF8BE241FE80E27E
:1017A00047FC8DE2B70190E071CFB70180E390E094
:1017B0000E94F50B9A946CCF8FEF9FEF99CFFC01AD
:1017C0000590615070400110D8F7809590958E0F6C
:1017D0009F1F0895FC016150704001900110D8F7DF
:1017E000809590958E0F9F1F08950F931F93CF9311
:1017F000DF93182F092FEB018B8181FD09C01FEFAB
:101800000FEF812F902FDF91CF911F910F910895AE
:1018100082FF14C02E813F818C819D81281739075A
:101820003CF4E881F981CF01019699838883108384
:101830008E819F8101969F838E83E3CFE885F98512
:10184000812F0995892BA1F3DACFFA01AA27283035
:1018500051F1203181F1E8946F936E7F6E5F7F4F7D
:101860008F4F9F4FAF4FB1E03ED0B4E03CD0670FF9
:10187000781F891F9A1FA11D680F791F8A1F911D4C
:10188000A11D6A0F711D811D911DA11D20D009F49C
:1018900068943F912AE0269F11243019305D3193DE
:1018A000DEF6CF010895462F4770405D4193B3E0C7
:1018B0000FD0C9F7F6CF462F4F70405D4A3318F06E
:1018C000495D31FD4052419302D0A9F7EACFB4E01F
:1018D000A6959795879577956795BA95C9F70097D7
:1018E0006105710508959B01AC010A2E0694579578
:1018F000479537952795BA95C9F7620F731F841FCF
:10190000951FA01D08952F923F924F925F926F9264
:101910007F928F929F92AF92BF92CF92DF92EF927F
:10192000FF920F931F93CF93DF93CDB7DEB7CA1B00
:10193000DB0B0FB6F894DEBF0FBECDBF09942A882B
:10194000398848885F846E847D848C849B84AA84D3
:10195000B984C884DF80EE80FD800C811B81AA8160
:10196000B981CE0FD11D0FB6F894DEBF0FBECDBF2B
:08197000ED010895F894FFCF8A
:10197800000000002003F302DF03C902EC02D902D1
:10198800CA0200000000AE038E00DF037B01707204
:10199800756562610054696D657200207365672022
:1019A8006D696E20686F7200202564203A202564D6
:1019B800203A202564003000656E7472613F000093
:00000001FF
