:100000000C9462000C948A000C948A000C948A0070
:100010000C948A000C948A000C948A000C948A0038
:100020000C948A000C948A000C948A000C948A0028
:100030000C948A000C94C7050C948A000C948A00D6
:100040000C945E040C948A000C948A000C948A0030
:100050000C948A000C948A000C948A000C948A00F8
:100060000C94A8040C948A000000000023002600D1
:10007000290000000008000201000003040700003E
:1000800000000000000000000000250028002B00F8
:1000900000000000240027002A00040404040404D3
:1000A0000404020202020202030303030303010227
:1000B00004081020408001020408102001020408F6
:1000C0001020EE0511241FBECFEFD8E0DEBFCDBF5C
:1000D00011E0A0E0B1E0E6E8F6E102C005900D9283
:1000E000A034B107D9F722E0A0E4B1E001C01D922D
:1000F000AA33B207E1F710E0C2E6D0E004C02197CE
:10010000FE010E946308C136D107C9F70E940F069D
:100110000C94410B0C94000081E480937C0080914E
:100120007A00806480937A0080917A0086FDFCCF0B
:100130008091780090917900089508950895AF9284
:10014000BF92CF92DF92EF92FF920F931F93CF93C4
:10015000DF936C017B018B01040F151FEB015E0126
:10016000AE18BF08C017D10759F06991D601ED91BB
:10017000FC910190F081E02DC6010995892B79F75A
:10018000C501DF91CF911F910F91FF90EF90DF900C
:10019000CF90BF90AF900895833081F028F48130E4
:1001A00099F08230A9F008958730A9F08830C9F01D
:1001B0008430B1F4809180008F7D03C080918000F5
:1001C0008F7780938000089584B58F7784BD0895DC
:1001D00084B58F7DFBCF8091B0008F778093B00086
:1001E00008958091B0008F7DF9CF1F93CF93DF9357
:1001F000282F30E0F901EE58FF4F8491F901E255C4
:10020000FF4FD491F901E656FF4FC491CC23A9F0DA
:10021000162F81110E94CC00EC2FF0E0EE0FFF1F93
:10022000EA57FF4FA591B4918FB7F894EC91111153
:1002300008C0D095DE23DC938FBFDF91CF911F9153
:100240000895DE2BF8CF3FB7F8948091A9019091E3
:10025000AA01A091AB01B091AC0126B5A89B05C045
:100260002F3F19F00196A11DB11D3FBFBA2FA92F35
:10027000982F8827BC01CD01620F711D811D911D32
:1002800042E0660F771F881F991F4A95D1F708959E
:100290008F929F92AF92BF92CF92DF92EF92FF9296
:1002A0004B015C010E9423016B017C010E94230130
:1002B0006C197D098E099F09683E7340810591057F
:1002C000A8F321E0821A9108A108B10888EEC80EAF
:1002D00083E0D81EE11CF11C81149104A104B10437
:1002E00029F7FF90EF90DF90CF90BF90AF909F9055
:1002F0008F900895089520918101260F3327331F91
:1003000021323105ECF42091F501FC0190E080E010
:10031000243069F082E00895A09181012191AC011F
:100320004F595E4FA40FB52FB11D2C930196861720
:1003300098F380918101680F6093810180E00895B6
:1003400081E008951092F50181E08093F40110920C
:10035000CF0161E082E10E94F50061E083E10E944B
:10036000F500E9EBF0E080818E7F808380818D7FD6
:10037000808388E48093B80085E48093BC0008956E
:10038000CF93DF9391E0909360018823B9F0C091FF
:10039000B800D091BA008091BC008A7B8093BC00E9
:1003A00060E082E10E94F50060E083E10E94F500D8
:1003B0000E94A201D093BA00C093B800DF91CF9100
:1003C0000895CF92DF92EF92FF920F931F93CF93F6
:1003D000DF93D0911E0281E0D13208F09CC0C09121
:1003E0001D020E9423016B017C018091F5018111A6
:1003F0006CC082E08093F50181E08093F4018FEF7F
:100400008093F3011092F201D093F101ADEFB1E0CE
:10041000E1EDF1E080E0D8138DC01092D001809121
:10042000D001CC0FC82BC093D0018091CF01813077
:1004300009F084C01092CF010E9423016B017C015E
:100440008091D0018093BB008091F7019091F801D9
:10045000A091F901B091FA01892B8A2B8B2BA1F085
:100460000E9423010091F7011091F8012091F901F8
:100470003091FA016C197D098E099F09061717073B
:100480002807390708F442C08091BC0083FDD8CF0B
:1004900085EC8093BC000E9423016B017C0180915C
:1004A000F501823009F44CC08091F3018F3F09F4CB
:1004B00069C08091F301803209F466C08091F30134
:1004C000803309F463C084E026C08091F7019091E5
:1004D000F801A091F901B091FA01892B8A2B8B2B9D
:1004E00009F483CF0E9423010091F7011091F801D4
:1004F0002091F9013091FA016C197D098E099F094B
:10050000061717072807390708F06FCF8091F60103
:100510000E94C00185E01092FC0110921E02109210
:10052000FB01DF91CF911F910F91FF90EF90DF9032
:10053000CF9008959D9191938F5F6DCF85EEA9CF58
:100540008091F7019091F801A091F901B091FA0121
:10055000892B8A2B8B2B09F4A2CF0E9423010091B7
:10056000F7011091F8012091F9013091FA016C190D
:100570007D098E099F09061717072807390708F014
:100580008ECFC4CF80E0C7CF82E0C5CF83E0C3CF9A
:100590000895E091B2018091B101E81730F4F0E0E4
:1005A000E05CFE4F808190E008958FEF9FEF08950B
:1005B0009091B2018091B1012FEF3FEF981748F46D
:1005C000E92FF0E0E05CFE4F208130E09F5F9093E8
:1005D000B201C90108958091B1019091B201891BC6
:1005E000990B0895CF92DF92EF92FF920F931F9392
:1005F000CF93DF937C01CB018A012091FB01222361
:1006000089F0EB016B01C40ED51ECC15DD0569F038
:100610006991D701ED91FC910190F081E02DC70126
:100620000995F3CF642F0E947B01C801DF91CF9120
:100630001F910F91FF90EF90DF90CF900895CF938F
:10064000DF931F92CDB7DEB769832091FB01222390
:10065000F9F020911E02203258F021E030E0FC0138
:100660003383228390E080E00F90DF91CF91089553
:100670008091FC01E82FF0E0E350FE4F99819083D8
:100680008F5F8093FC0180931E0281E090E0ECCFAD
:1006900061E0CE0101960E947B01F7CFCF93DF93FB
:1006A000EB01FC01828591E09093FB0180931D0298
:1006B0001092FC0110921E0268818FE192E00E946C
:1006C0001F0365E070E080E090E00E9448016981CE
:1006D0008FE192E00E941F0365E070E080E090E00F
:1006E0000E944801DF91CF910C94E101CF93DF93F9
:1006F00000D01F92CDB7DEB71B8290E899838A8322
:10070000BE016F5F7F4F8BE292E00E944E030F901D
:100710000F900F90DF91CF91089581E00E947603B2
:100720008BE39FE10197F1F70895CF93DF9300D01A
:100730001F92CDB7DEB71B8220E429836A83BE01F6
:100740006F5F7F4F0E944E0381E090E00F900F900B
:100750000F90DF91CF910895CF93C62F90913602DD
:1007600021E02093FB0190931D021092FC01109256
:100770001E02682F8FE192E00E941F036C2F8FE111
:1007800092E00E941F03CF910C94E10190E080E081
:100790000895CF93DF93EFE7F0E08491EBEBF0E087
:1007A000D491E7EAF0E0C491CC2379F081110E9462
:1007B000CC00EC2FF0E0EE0FFF1FE859FF4FA591A2
:1007C000B491EC91ED2361E009F460E081E06827E9
:1007D0008DE00E94F5008091B3019091B4010197E2
:1007E00029F58091C1019091C20101979093C201B6
:1007F0008093C1018091C1019091C201892BB1F414
:100800001092B4011092B3011092C8011092C70166
:100810001092C6011092C5011092C4011092C3013A
:1008200061E08CE0DF91CF910C94F500DF91CF91E6
:100830000895FC0101900020E9F73197AF01481BB2
:10084000590BBC018BE292E00C949F0085ED8093E4
:10085000BC008091F7019091F801A091F901B0914D
:10086000FA010796A11DB11D23E0B695A7959795AE
:1008700087952A95D1F72091BC0024FD03C01092E2
:10088000F50108954091F7015091F8016091F90147
:100890007091FA01452B462B472B69F30097A10570
:1008A000B10541F025E32A95F1F700000197A10970
:1008B000B109E1CF8091F6010C94C0011F920F9213
:1008C0000FB60F9211242F933F938F939F93AF9363
:1008D000BF938091A5019091A601A091A701B0912D
:1008E000A8013091A40123E0230F2D3758F501967C
:1008F000A11DB11D2093A4018093A5019093A60191
:10090000A093A701B093A8018091A9019091AA0199
:10091000A091AB01B091AC010196A11DB11D8093D6
:10092000A9019093AA01A093AB01B093AC01BF9130
:10093000AF919F918F913F912F910F900FBE0F908C
:100940001F90189526E8230F0296A11DB11DD2CF46
:100950001F920F920FB60F9211242F933F934F9334
:100960005F936F937F938F939F93AF93BF93EF9317
:10097000FF938091B900887F803609F44AC0F0F572
:10098000883209F4A7C018F5803109F49BC0B8F487
:10099000882309F4F9C0883009F494C0FF91EF91DD
:1009A000BF91AF919F918F917F916F915F914F9187
:1009B0003F912F910F900FBE0F901F901895883187
:1009C00009F488C0803251F78093F30114C0803459
:1009D00009F49DC040F48033B9F38833F9F680936D
:1009E000F30185ECB0C0803509F485C0883509F481
:1009F00096C0883499F60E942604D0CF883909F42D
:100A00008CC038F5883729F050F4883611F08037DB
:100A100029F683E08093F5011092A30157C088382E
:100A200009F47BC0803919F0803809F0B7CF809184
:100A3000A301803208F071C0E091A30181E08E0F24
:100A40008093A3018091BB00F0E0ED57FE4F8083BF
:100A50003DC0803B39F0E0F4803A09F479C0883A2F
:100A600009F09CCF84E08093F501109282011092EE
:100A70008101E091AF01F091B00109958091810170
:100A800081110FC081E0809381011092610109C042
:100A9000803C09F4A6CF883C09F4A3CF883B09F039
:100AA0007DCFE091820181E08E0F80938201F0E0A2
:100AB000EF59FE4F80818093BB009091820180911D
:100AC000810129C08091D0018093BB0085EC809387
:100AD000BC0064CF9091F2018091F101981758F514
:100AE000E091F20181E08E0F8093F201F0E0EF528D
:100AF000FE4F8081E9CFE091F20181E08E0F80937B
:100B0000F2018091BB00F0E0EF52FE4F80839091A4
:100B1000F2018091F1019817C8F285E8D8CFE091F1
:100B2000F20181E08E0F8093F2018091BB00F0E032
:100B3000EF52FE4F80838091F40181115CCF81E000
:100B40008093CF0184EA8093BC001092F50126CFF8
:100B500085EC8093BC001092F5018091A301803256
:100B600030F4E091A301F0E0ED57FE4F1082609168
:100B7000A30170E0E091AD01F091AE0183E891E056
:100B800009951092A3010ACF1092F30134CF1F925E
:100B90000F920FB60F9211242F933F934F935F93B1
:100BA0006F937F938F939F93AF93BF93EF93FF9335
:100BB000E091B501F091B6010995FF91EF91BF91D8
:100BC000AF919F918F917F916F915F914F913F91E5
:100BD0002F910F900FBE0F901F901895EFE1F2E04C
:100BE0001382128288EE93E0A0E0B0E084839583C4
:100BF000A683B78384E091E091838083EBE2F2E007
:100C00001382128286E191E0918380838EE3828752
:100C100080E6838780E1848782E0858708957894E1
:100C200084B5826084BD84B5816084BD85B58260F1
:100C300085BD85B5816085BD80916E0081608093A2
:100C40006E0010928100809181008260809381000B
:100C5000809181008160809381008091800081601B
:100C6000809380008091B10084608093B100809176
:100C7000B00081608093B00080917A00846080939E
:100C80007A0080917A00826080937A0080917A0065
:100C9000816080937A0080917A00806880937A00E6
:100CA0001092C100EBEBF0E02491E7EAF0E08491D0
:100CB000882399F090E0880F991FFC01E057FF4FBF
:100CC000A591B491FC01EA57FF4F859194918FB79C
:100CD000F894EC91E22BEC938FBF1092B20110923A
:100CE000B1011092FC0110921E020E94A2018DE936
:100CF00090E09093B0018093AF018EE990E09093E3
:100D0000AE018093AD0110922F02809138028230A3
:100D100018F098E090932F028093330210923402DF
:100D200062E370E080E090E00E94480180912F0231
:100D300080620E94760365E070E080E090E00E94AF
:100D4000480180912F0280620E94760365E070E086
:100D500080E090E00E94480180912F0280620E9412
:100D6000760384E0809330028CE00E9476030E9438
:100D70008D0382E08093310286E00E94760360E07A
:100D800080E00E94AC036FEF88E00E94AC0360E259
:100D900081E00E94AC036FEF84E00E94AC036FEF30
:100DA00083E00E94AC036FEF82E00E94AC036FEF20
:100DB00084E00E94AC0360E083E00E94AC0360E04A
:100DC00082E00E94AC038EE191E00E94190468EE7B
:100DD00073E080E090E00E9448010E948D0380E172
:100DE000C82E8EE0D82E99E2292E91E0392E27EBDD
:100DF000422E21E0522E32E1632E3AE7732EC1E0FB
:100E0000D0E049ECA42E43E0B42E0E948C009093D5
:100E1000CE018093CD01815F9340049720F4D0935D
:100E2000CC01C093CB010091CB011091CC010130DA
:100E3000110509F040C160E08CE00E94F5000E94BD
:100E40008C009093CE018093CD01875D93400397F2
:100E500008F04CC01093CA010093C90161E082E020
:100E60000E94F5008091C9019091CA01019779F41F
:100E70000E948C009093CE018093CD01875D9340BA
:100E8000039780F31092CA011092C901EBCF8091B1
:100E9000C7019091C80101969093C8018093C70142
:100EA0008091CD019091CE01865E9340069708F027
:100EB00051C0D093CA01C093C90161E083E00E9490
:100EC000F5008091C9019091CA010197A1F40E9497
:100ED0008C009093CE018093CD01865E934006975F
:100EE00080F31092CA011092C901EBCF60E082E05A
:100EF0000E94F500D5CF8091C5019091C601019661
:100F00009093C6018093C5018091CD019091CE014F
:100F1000835E9340039708F0C4C0D093CA01C09386
:100F2000C90161E084E00E94F5008091C9019091BF
:100F3000CA010197A1F40E948C009093CE01809386
:100F4000CD01835E9340039780F31092CA01109203
:100F5000C901EBCF60E083E00E94F500D5CF80911E
:100F6000C3019091C40101969093C4018093C30181
:100F70008091CD019091CE018F5C9340049708F051
:100F800095C0E090C501F090C6010091C701109195
:100F9000C8018090C3019090C4012CE32E9DC00134
:100FA0002F9D900D1124800F911F8C9C90018D9C82
:100FB000300D9C9C300D1124820F931F9093C20121
:100FC0008093C10161E084E00E94F5009F928F92BE
:100FD000FF92EF921F930F933F922F925F924F9247
:100FE0000E94690887EB91E00E94190464EF71E0A8
:100FF00080E090E00E9448012091C5013091C60137
:101000004CE3429FC001439F900D11242091C701E2
:101010003091C801820F931F4091C3015091C401C8
:101020004C9D90014D9D300D5C9D300D1124820F23
:10103000931F9093C2018093C1010E948D0380E1B0
:1010400080938100109280007092870060928600E9
:1010500094E190938100B092B601A092B50181E035
:1010600080936F000E948D03D093B401C093B301AD
:1010700088E391E00E94190464EF71E080E090E061
:101080000E9448010E948D031092CC011092CB0166
:101090008DB79EB70A960FB6F8949EBF0FBE8DBF50
:1010A000C2CE60E084E00E94F50062CF60E084E0A0
:1010B0000E94F500B8CE80E090E0892B09F4A5CE1F
:1010C0000E940000A2CEEE0FFF1F0590F491E02DCC
:1010D0000994AEE0B0E0EFE6F8E00C94180B0D894F
:1010E0001E8986E08C831A8309838FEF9FE79E8396
:1010F0008D83AE01475E5F4F6F89788DCE0101967B
:101100000E948C082F813885020F131FF80110826E
:101110002E96E4E00C94340BABE0B0E0E2E9F8E0AA
:101120000C940A0B7C013B018A01FC011782168298
:10113000838181FFC8C1CE0101965C01F7019381D3
:10114000F30193FD859193FF81913F01882309F479
:1011500053C1853239F493FD859193FF81913F010D
:10116000853229F4B70190E00E947C0AE7CF912CE8
:10117000212C312CFFE1F31538F08B3211F190F472
:10118000803209F1833229F137FC3CC020ED280F71
:101190002A3050F536FE20C08AE0989E200D11249A
:1011A000922E06C08D3291F0803371F7689430F83A
:1011B000F30193FD859193FF81913F018111DACF76
:1011C00021C0689431F8689432F8F2CF689433F80B
:1011D000EFCF689434F8ECCFEAE02E9E200D112476
:1011E000222E689435F8E4CF8E3229F436FC04C1FF
:1011F000689436F8DDCF8C3619F4689437F8D8CF78
:101200008836B1F2982F9F7D95549330E0F0833665
:10121000A1F18337C1F1833509F063C02801F2E001
:101220004F0E511CF801C080D180692D70E036FC52
:1012300002C06FEF7FEFC6010E94660A4C016894FE
:1012400037F882010AC00C5F1F4FFFE3F98388243F
:101250008394912C6501E89437F833FE2DC0522C0D
:101260008114910471F5552009F468CFB70180E22B
:1012700090E00E947C0A5A94F6CFF801808189831D
:101280000E5F1F4FE4CF2801F2E04F0E511CF80112
:10129000C080D180692D70E036FC02C06FEF7FEF17
:1012A000C6010E94710A4C018201D5CFB70180E2CC
:1012B00090E00E947C0A2A942814190409F0B0F7DF
:1012C000CECFF60137FC859137FE81916F01B701D2
:1012D00090E00E947C0A51105A94F1E08F1A910814
:1012E000BFCF843619F0893609F077C0F80137FE90
:1012F0006BC060817181828193810C5F1F4FF32DE0
:10130000FF763F2E97FF09C0909580957095619567
:101310007F4F8F4F9F4F689437F82AE030E0A50148
:101320000E94AC0AC82ECA188C2C432C36FE0CC066
:10133000E89440F8C91440F434FE05C032FC03C000
:10134000F32DFE7E4F2E892C44FE95C0FE01EC0D40
:10135000F11D8081803309F087C0242D297E422E23
:10136000842D8870582E43FC95C040FE8FC09C2C65
:10137000821418F42C0C922C981844FE91C0B701DA
:1013800080E390E00E947C0A42FE09C088E790E07A
:1013900041FE02C088E590E0B7010E947C0AC914B2
:1013A00008F48AC0CA94D12C9FEFC91AD90ACA0C72
:1013B000DB1CF60182916F01B70190E00E947C0A6C
:1013C000AC14BD04B1F74FCF60817181072E000CC2
:1013D000880B990B0E5F1F4F92CFD32CE894D4F853
:1013E0002AE030E0853739F1232D297FD22E8F3640
:1013F00001F148F48835A9F0F701868197812B9691
:10140000E2E10C94260B803749F08837A9F7D4FE27
:1014100002C06894D2F820E130E00DC06894D4F89E
:10142000F6CF34FE03C0822F8660D82E20E132E052
:1014300002C028E030E0F801D7FE0FC06081718162
:10144000828193810C5F1F4FA5010E94AC0AC82EB8
:10145000CA183D2CE89437F867CF6081718190E01D
:1014600080E00E5F1F4FF0CF42FC02C0839478CF24
:101470008394839475CF842D867809F471CFF6CF49
:10148000B70180E290E00E947C0A83948214C0F34A
:10149000512C73CF522C5818821408F46ECFF8CF09
:1014A000842D867809F47BCF8BE241FE80E247FCF5
:1014B0008DE2B70190E071CFB70180E390E00E9428
:1014C0007C0A9A946CCF8FEF9FEF99CFFC01059027
:1014D000615070400110D8F7809590958E0F9F1F36
:1014E0000895FC016150704001900110D8F780957B
:1014F00090958E0F9F1F08950F931F93CF93DF93A7
:10150000182F092FEB018B8181FD09C01FEF0FEF11
:10151000812F902FDF91CF911F910F91089582FF1E
:1015200014C02E813F818C819D81281739073CF49E
:10153000E881F981CF0101969983888310838E8198
:101540009F8101969F838E83E3CFE885F985812F64
:101550000995892BA1F3DACFFA01AA27283051F196
:10156000203181F1E8946F936E7F6E5F7F4F8F4FD4
:101570009F4FAF4FB1E03ED0B4E03CD0670F781F33
:10158000891F9A1FA11D680F791F8A1F911DA11D18
:101590006A0F711D811D911DA11D20D009F4689451
:1015A0003F912AE0269F11243019305D3193DEF6F9
:1015B000CF010895462F4770405D4193B3E00FD0AF
:1015C000C9F7F6CF462F4F70405D4A3318F0495D9A
:1015D00031FD4052419302D0A9F7EACFB4E0A6957D
:1015E0009795879577956795BA95C9F7009761059F
:1015F000710508959B01AC010A2E069457954795F5
:1016000037952795BA95C9F7620F731F841F951FE9
:10161000A01D08952F923F924F925F926F927F92FA
:101620008F929F92AF92BF92CF92DF92EF92FF92F2
:101630000F931F93CF93DF93CDB7DEB7CA1BDB0B9E
:101640000FB6F894DEBF0FBECDBF09942A88398843
:1016500048885F846E847D848C849B84AA84B9844A
:10166000C884DF80EE80FD800C811B81AA81B98156
:10167000CE0FD11D0FB6F894DEBF0FBECDBFED016A
:061680000895F894FFCF6D
:10168600000000001F03F202C603C802EB02D802E4
:10169600C9020000000095039F00C6037A01707519
:1016A600657320686162657200533A2564204D3A7D
:1016B600256420483A25640074696D65206F6E00C4
:00000001FF
