:100000000C9462000C948A000C948A000C948A0070
:100010000C948A000C948A000C948A000C948A0038
:100020000C948A000C948A000C948A000C948A0028
:100030000C948A000C9497060C948A000C948A0005
:100040000C942E050C948A000C948A000C948A005F
:100050000C948A000C948A000C948A000C948A00F8
:100060000C9478050C948A00000000002300260000
:10007000290000000008000201000003040700003E
:1000800000000000000000000000250028002B00F8
:1000900000000000240027002A00040404040404D3
:1000A0000404020202020202030303030303010227
:1000B00004081020408001020408102001020408F6
:1000C0001020BE0611241FBECFEFD8E0DEBFCDBF8B
:1000D00011E0A0E0B1E0EEEDF9E102C005900D9273
:1000E000A436B107D9F722E0A4E6B1E001C01D9221
:1000F000AA35B207E1F710E0C2E6D0E004C02197CC
:10010000FE010E94080AC136D107C9F70E94DF0626
:100110000C94ED0C0C94000008950895AF92BF92DA
:10012000CF92DF92EF92FF920F931F93CF93DF93C3
:100130006C017B018B01040F151FEB015E01AE18F2
:10014000BF08C017D10759F06991D601ED91FC9114
:100150000190F081E02DC6010995892B79F7C50141
:10016000DF91CF911F910F91FF90EF90DF90CF9093
:10017000BF90AF900895833081F028F4813099F0DA
:100180008230A9F008958730A9F08830C9F0843012
:10019000B1F4809180008F7D03C0809180008F77C3
:1001A00080938000089584B58F7784BD089584B5C9
:1001B0008F7DFBCF8091B0008F778093B000089542
:1001C0008091B0008F7DF9CF1F93CF93DF93282FBD
:1001D00030E0F901EE58FF4F8491F901E255FF4FED
:1001E000D491F901E656FF4FC491CC23A9F0162F04
:1001F00081110E94BB00EC2FF0E0EE0FFF1FEA57C9
:10020000FF4FA591B4918FB7F894EC91111108C0EC
:10021000D095DE23DC938FBFDF91CF911F9108959E
:10022000DE2BF8CF8E50806480937C0080917A0022
:10023000806480937A0080917A0086FDFCCF809163
:1002400078009091790008953FB7F8948091CD019E
:100250009091CE01A091CF01B091D00126B5A89B7D
:1002600005C02F3F19F00196A11DB11D3FBFBA2F48
:10027000A92F982F8827BC01CD01620F711D811D08
:10028000911D42E0660F771F881F991F4A95D1F78D
:1002900008958F929F92AF92BF92CF92DF92EF928A
:1002A000FF924B015C010E9424016B017C010E94C2
:1002B00024016C197D098E099F09683E73408105F0
:1002C0009105A8F321E0821A9108A108B10888EEEF
:1002D000C80E83E0D81EE11CF11C81149104A10416
:1002E000B10429F7FF90EF90DF90CF90BF90AF90CF
:1002F0009F908F90089508952091A501260F332790
:10030000331F21323105ECF420911502FC0190E0FD
:1003100080E0243069F082E00895A091A501219148
:10032000AC014B575E4FA40FB52FB11D2C93019616
:10033000861798F38091A501680F6093A50180E06E
:10034000089581E008951092150281E080931402CF
:100350001092EF0161E082E10E94E40061E083E13C
:100360000E94E400E9EBF0E080818E7F8083808151
:100370008D7F808388E48093B80085E48093BC00FF
:100380000895CF93DF9391E0909384018823B9F08F
:10039000C091B800D091BA008091BC008A7B809354
:1003A000BC0060E082E10E94E40060E083E10E9422
:1003B000E4000E94A301D093BA00C093B800DF917B
:1003C000CF910895CF92DF92EF92FF920F931F93F8
:1003D000CF93DF93D0913E0281E0D13208F09CC0F0
:1003E000C0913D020E9424016B017C0180911502A5
:1003F00081116CC082E08093150281E08093140229
:100400008FEF8093130210921202D0931102ADE18C
:10041000B2E0E1EFF1E080E0D8138DC01092F0017E
:100420008091F001CC0FC82BC093F0018091EF01B7
:10043000813009F084C01092EF010E9424016B0109
:100440007C018091F0018093BB0080911702909114
:100450001802A0911902B0911A02892B8A2B8B2BBA
:10046000A1F00E942401009117021091180220911E
:10047000190230911A026C197D098E099F0906171D
:1004800017072807390708F442C08091BC0083FD94
:10049000D8CF85EC8093BC000E9424016B017C01C5
:1004A00080911502823009F44CC0809113028F3F75
:1004B00009F469C080911302803209F466C080910A
:1004C0001302803309F463C084E026C080911702D0
:1004D00090911802A0911902B0911A02892B8A2BCF
:1004E0008B2B09F483CF0E942401009117021091F5
:1004F00018022091190230911A026C197D098E0997
:100500009F09061717072807390708F06FCF809152
:1005100016020E94C10185E010921C0210923E0258
:1005200010921B02DF91CF911F910F91FF90EF90DE
:10053000DF90CF9008959D9191938F5F6DCF85EE61
:10054000A9CF8091170290911802A0911902B09141
:100550001A02892B8A2B8B2B09F4A2CF0E9424012B
:1005600000911702109118022091190230911A027D
:100570006C197D098E099F09061717072807390787
:1005800008F08ECFC4CF80E0C7CF82E0C5CF83E034
:10059000C3CF0895E091D6018091D501E81730F4DA
:1005A000F0E0EC59FE4F808190E008958FEF9FEFCF
:1005B00008959091D6018091D5012FEF3FEF9817C4
:1005C00048F4E92FF0E0EC59FE4F208130E09F5FC6
:1005D0009093D601C90108958091D5019091D601DB
:1005E000891B990B0895CF92DF92EF92FF920F93A0
:1005F0001F93CF93DF937C01CB018A0120911B02D3
:10060000222389F0EB016B01C40ED51ECC15DD054C
:1006100069F06991D701ED91FC910190F081E02D95
:10062000C7010995F3CF642F0E947C01C801DF91B7
:10063000CF911F910F91FF90EF90DF90CF90089591
:10064000CF93DF931F92CDB7DEB7698320911B0252
:100650002223F9F020913E02203258F021E030E0D0
:10066000FC013383228390E080E00F90DF91CF91F3
:10067000089580911C02E82FF0E0E35EFD4F998120
:1006800090838F5F80931C0280933E0281E090E014
:10069000ECCF61E0CE0101960E947C01F7CFCF93B1
:1006A000DF93EB01FC01828591E090931B02809324
:1006B0003D0210921C0210923E0268818FE392E08C
:1006C0000E94200365E070E080E090E00E94490114
:1006D00069818FE392E00E94200365E070E080E092
:1006E00090E00E944901DF91CF910C94E201CF93F9
:1006F000DF9300D01F92CDB7DEB71B8290E89983BD
:100700008A83BE016F5F7F4F8BE492E00E944F03AC
:100710000F900F900F90DF91CF91089581E00E948C
:1007200077038BE39FE10197F1F70895CF93DF9370
:1007300000D01F92CDB7DEB7611112C080681B8256
:1007400090E899838A83BE016F5F7F4F8BE492E0CC
:100750000E944F030F900F900F90DF91CF9108955B
:10076000806CEDCFCF93DF9300D01F92CDB7DEB773
:100770001B8220E429836A83BE016F5F7F4F0E9442
:100780004F0381E090E00F900F900F90DF91CF9199
:100790000895CF93C62F9091560221E020931B021B
:1007A00090933D0210921C0210923E02682F8FE33C
:1007B00092E00E9420036C2F8FE392E00E942003BE
:1007C000CF910C94E20190E080E00895ECE3E69F85
:1007D0009001E79F300D1124820F931F60E17EE0AE
:1007E000469F9001479F300D569F300D1124820F78
:1007F000931F9093DC018093DB0168EE73E080E04F
:1008000090E00E9449011092E2011092E1011092E1
:10081000DE011092DD0181E090E09093DA01809397
:10082000D901E1E8F0E080E180831092800082E16C
:100830009AE7909387008093860084E1808389E221
:1008400094E09093D8018093D70181E080936F006A
:100850000895CF93DF93EFE7F0E08491EBEBF0E0C6
:10086000D491E7EAF0E0C491CC2379F081110E94A1
:10087000BB00EC2FF0E0EE0FFF1FE859FF4FA591F2
:10088000B491EC91ED2361E009F460E081E0682728
:100890008DE00E94E4008091D9019091DA010197E6
:1008A000D9F48091DB019091DC0101979093DC01F8
:1008B0008093DB018091DB019091DC01892B61F455
:1008C00082E090E09093DA018093D90161E08CE0BE
:1008D000DF91CF910C94E400DF91CF9108958F9236
:1008E0009F92AF92BF920F931F93CF93DF93CDB799
:1008F000DEB7A1970FB6F894DEBF0FBECDBF19A229
:10090000423008F44AE08E010F5D1F4F842E912C77
:10091000B12CA12CA50194010E94D209E62FB901A6
:10092000CA01EA3044F5E05DD801EE938D01232B36
:10093000242B252B79F790E080E0109769F0FD01DA
:1009400001900020E9F73197AF014A1B5B0BBD0115
:100950008BE492E00E948E00A1960FB6F894DEBF61
:100960000FBECDBFDF91CF911F910F91BF90AF9080
:100970009F908F900895E95CD7CFFC0101900020F3
:10098000E9F73197AF01481B590BBC018BE492E0AA
:100990000C948E00CF92DF92EF92FF92CF93DF9371
:1009A00097FF1BC06B017C016DE28BE492E00E941B
:1009B000B203EC0166277727CB016C197D098E09FC
:1009C0009F094AE00E946F048C0F9D1FDF91CF9119
:1009D000FF90EF90DF90CF9008954AE0DF91CF91A4
:1009E000FF90EF90DF90CF900C946F0485ED809393
:1009F000BC008091170290911802A0911902B09149
:100A00001A020796A11DB11D23E0B695A7959795EB
:100A100087952A95D1F72091BC0024FD03C0109240
:100A20001502089540911702509118026091190221
:100A300070911A02452B462B472B69F30097A105AD
:100A4000B10541F025E32A95F1F700000197A109CE
:100A5000B109E1CF809116020C94C1011F920F924F
:100A60000FB60F9211242F933F938F939F93AF93C1
:100A7000BF938091C9019091CA01A091CB01B0911F
:100A8000CC013091C80123E0230F2D3758F5019692
:100A9000A11DB11D2093C8018093C9019093CA0183
:100AA000A093CB01B093CC018091CD019091CE0168
:100AB000A091CF01B091D0010196A11DB11D8093ED
:100AC000CD019093CE01A093CF01B093D001BF91FF
:100AD000AF919F918F913F912F910F900FBE0F90EB
:100AE0001F90189526E8230F0296A11DB11DD2CFA5
:100AF0001F920F920FB60F9211242F933F934F9393
:100B00005F936F937F938F939F93AF93BF93EF9375
:100B1000FF938091B900887F803609F44AC0F0F5D0
:100B2000883209F4A7C018F5803109F49BC0B8F4E5
:100B3000882309F4F9C0883009F494C0FF91EF913B
:100B4000BF91AF919F918F917F916F915F914F91E5
:100B50003F912F910F900FBE0F901F9018958831E5
:100B600009F488C0803251F78093130214C0803496
:100B700009F49DC040F48033B9F38833F9F68093CB
:100B8000130285ECB0C0803509F485C0883509F4BE
:100B900096C0883499F60E94F604D0CF883909F4BB
:100BA0008CC038F5883729F050F4883611F080373A
:100BB00029F683E0809315021092C70157C0883848
:100BC00009F47BC0803919F0803809F0B7CF8091E3
:100BD000C701803208F071C0E091C70181E08E0F3B
:100BE0008093C7018091BB00F0E0E955FE4F808300
:100BF0003DC0803B39F0E0F4803A09F479C0883A8E
:100C000009F09CCF84E0809315021092A601109207
:100C1000A501E091D301F091D40109958091A5013E
:100C200081110FC081E08093A5011092850109C058
:100C3000803C09F4A6CF883C09F4A3CF883B09F097
:100C40007DCFE091A60181E08E0F8093A601F0E0B8
:100C5000EB57FE4F80818093BB009091A60180915D
:100C6000A50129C08091F0018093BB0085EC8093A1
:100C7000BC0064CF9091120280911102981758F530
:100C8000E091120281E08E0F80931202F0E0EF50AB
:100C9000FE4F8081E9CFE091120281E08E0F8093B8
:100CA00012028091BB00F0E0EF50FE4F80839091E4
:100CB0001202809111029817C8F285E8D8CFE0910E
:100CC000120281E08E0F809312028091BB00F0E04F
:100CD000EF50FE4F80838091140281115CCF81E040
:100CE0008093EF0184EA8093BC001092150226CF16
:100CF00085EC8093BC00109215028091C701803270
:100D000030F4E091C701F0E0E955FE4F10826091A8
:100D1000C70170E0E091D101F091D20187EA91E042
:100D200009951092C7010ACF1092130234CF1F9277
:100D30000F920FB60F9211242F933F934F935F930F
:100D40006F937F938F939F93AF93BF93EF93FF9393
:100D5000E091D701F091D8010995FF91EF91BF91F2
:100D6000AF919F918F917F916F915F914F913F9143
:100D70002F910F900FBE0F901F901895EFE3F2E0A8
:100D80001382128288EE93E0A0E0B0E08483958322
:100D9000A683B78384E091E091838083EBE4F2E063
:100DA0001382128286E191E0918380838EE38287B1
:100DB00080E6838780E1848782E085870895789440
:100DC00084B5826084BD84B5816084BD85B5826050
:100DD00085BD85B5816085BD80916E008160809301
:100DE0006E0010928100809181008260809381006A
:100DF000809181008160809381008091800081607A
:100E0000809380008091B10084608093B1008091D4
:100E1000B00081608093B00080917A0084608093FC
:100E20007A0080917A00826080937A0080917A00C3
:100E3000816080937A0080917A00806880937A0044
:100E40001092C100EBEBF0E02491E7EAF0E084912E
:100E5000882399F090E0880F991FFC01E057FF4F1D
:100E6000A591B491FC01EA57FF4F859194918FB7FA
:100E7000F894EC91E22BEC938FBF1092D601109274
:100E8000D50110921C0210923E020E94A3018CE830
:100E900090E09093D4018093D3018DE890E09093FB
:100EA000D2018093D10110924F028091580282307A
:100EB00018F098E090934F028093530210925402DE
:100EC00062E370E080E090E00E94490180914F026F
:100ED00080620E94770365E070E080E090E00E940D
:100EE000490180914F0280620E94770365E070E0C3
:100EF00080E090E00E94490180914F0280620E9450
:100F0000770384E0809350028CE00E9477030E9474
:100F10008E0382E08093510286E00E94770360E0B6
:100F200080E00E94C9036FEF88E00E94C90360E27D
:100F300081E00E94C9036FEF84E00E94C9036FEF54
:100F400083E00E94C9036FEF82E00E94C9036FEF44
:100F500084E00E94C90360E083E00E94C90360E06E
:100F600082E00E94C9038EE191E00E94BD0468EE18
:100F700073E080E090E00E9449010E948E0385E2C8
:100F800091E00E94BD0464EF71E080E090E00E9477
:100F900049010E948E03CC24CA9433E0D32E48E149
:100FA000242EAA24A394B12C98E3492E91E0592E23
:100FB0002CE3322E60E080E00E9496036BE271E049
:100FC00085EE91E00E940E0A85EE91E00E94BD043C
:100FD00062E081E00E9496031F921F921F921F926F
:100FE0001F921F925F924F9285EE91E09F938F9395
:100FF0000E94150A85EE91E00E94BD048EE00E94D9
:1010000012019093E4018093E301815F93402DB737
:101010003EB7265F3F4F0FB6F8943EBF0FBE2DBFC1
:10102000049720F4B092E201A092E101F12CE12CAE
:1010300010E000E0D0E0C0E085EE682E81E0782E80
:101040008090E1019090E20131E08316910409F073
:1010500063C18EE00E9412019093E4018093E3014A
:1010600060E08CE00E94E40062E081E00E94960370
:10107000FF92EF921F930F93DF93CF9329E431E018
:101080003F932F937F926F920E94150A85EE91E015
:101090000E94BD048091E3019091E401815F93403F
:1010A0002DB73EB7265F3F4F0FB6F8943EBF0FBE39
:1010B0002DBF049718F59092E0018092DF01809196
:1010C000DF019091E001019781F48EE00E9412010E
:1010D0009093E4018093E301815F9340049778F358
:1010E0001092E0011092DF01EACF8091DD01909132
:1010F000DE0101969093DE018093DD018091DD0198
:101100009091DE018130910511F00497C9F58FE0CF
:101110000E9412019C01329EC001339E900D112449
:10112000B6010E94BE09EB0177FF02C0C05CDF4F31
:1011300061E081E00E949603CA30D10524F487E57E
:1011400091E00E94BD04BE010D2E000C880B990B8E
:101150000E94CA048EE00E9412019093E4018093E1
:10116000E3019C01215F33402430310548F08F5C5E
:101170009340049718F6A701B801CE010E94E60338
:101180008091DD019091DE010297C9F58FE00E9408
:1011900012019C01329EC001339E900D1124B601B4
:1011A0000E94BE098B0177FF02C0005C1F4F61E007
:1011B00086E00E9496030A30110524F487E591E049
:1011C0000E94BD04B801012E000C880B990B0E94EF
:1011D000CA048EE00E9412019093E4018093E3011F
:1011E0009C01215F33402430310548F08F5C9340EF
:1011F000049730F6A701B801CE010E94E603809162
:10120000DD019091DE010397D9F58FE00E94120174
:101210009C01229EC001239E900D1124B6010E94C4
:10122000BE097B0177FF03C03CE1E30EF11C61E0E6
:101230008AE00E9496038AE0E816F10424F487E528
:1012400091E00E94BD04B7010F2C000C880B990B94
:101250000E94CA048EE00E9412019093E4018093E0
:10126000E3019C01215F33402430310548F08F5C5D
:101270009340049720F6A701B801CE010E94E6032F
:101280008091E3019091E4018F5C9340049708F012
:1012900069C0309EC001319E900D1124C80FD91F26
:1012A00020E13EE0E29EC001E39E900DF29E900D93
:1012B0001124C80FD91FD093DC01C093DB010E9419
:1012C0008E0364EF71E080E090E00E94490160913C
:1012D000DB017091DC01072E000C880B990B0E943A
:1012E000CA04B092DA01A092D90180E18093810012
:1012F0001092800082E19AE79093870080938600A5
:1013000084E18093810089E294E09093D8018093F6
:10131000D70181E080936F008091DB019091DC0127
:10132000892BC1F48091D9019091DA01029791F44F
:101330000E948E0389E591E00E94BD0468EE73E08F
:1013400080E090E00E9449010E948E031092DA0131
:101350001092D90180E090E0892B09F42BCE0E94F5
:10136000000022CE8091DD019091DE0104970CF403
:1013700067CEB092DE01A092DD0162CE97FB072E10
:1013800016F4009407D077FD09D00E94F40907FCF9
:1013900005D03EF4909581959F4F08957095619585
:1013A0007F4F0895A1E21A2EAA1BBB1BFD010DC0A1
:1013B000AA1FBB1FEE1FFF1FA217B307E407F50705
:1013C00020F0A21BB30BE40BF50B661F771F881FE1
:1013D000991F1A9469F760957095809590959B0177
:1013E000AC01BD01CF010895AA1BBB1B51E107C091
:1013F000AA1FBB1FA617B70710F0A61BB70B881FA5
:10140000991F5A95A9F780959095BC01CD01089533
:10141000EE0FFF1F0590F491E02D0994FB01DC0114
:1014200001900D920020E1F70895AEE0B0E0EBE10D
:10143000FAE00C94C40C0D891E8986E08C831A8313
:1014400009838FEF9FE79E838D83AE01475E5F4FD9
:101450006F89788DCE0101960E94380A2F813885D8
:10146000020F131FF80110822E96E4E00C94E00C9A
:10147000ABE0B0E0EEE3FAE00C94B60C7C013B018B
:101480008A01FC0117821682838181FFC8C1CE01C7
:1014900001965C01F7019381F30193FD859193FF20
:1014A00081913F01882309F453C1853239F493FDBA
:1014B000859193FF81913F01853229F4B70190E036
:1014C0000E94280CE7CF912C212C312CFFE1F31541
:1014D00038F08B3211F190F4803209F1833229F126
:1014E00037FC3CC020ED280F2A3050F536FE20C0D6
:1014F0008AE0989E200D1124922E06C08D3291F024
:10150000803371F7689430F8F30193FD859193FF70
:1015100081913F018111DACF21C0689431F868943C
:1015200032F8F2CF689433F8EFCF689434F8ECCF08
:10153000EAE02E9E200D1124222E689435F8E4CF87
:101540008E3229F436FC04C1689436F8DDCF8C362F
:1015500019F4689437F8D8CF8836B1F2982F9F7D68
:1015600095549330E0F08336A1F18337C1F1833590
:1015700009F063C02801F2E04F0E511CF801C08051
:10158000D180692D70E036FC02C06FEF7FEFC6019D
:101590000E94120C4C01689437F882010AC00C5F5B
:1015A0001F4FFFE3F98388248394912C6501E8940D
:1015B00037F833FE2DC0522C8114910471F555205B
:1015C00009F468CFB70180E290E00E94280C5A9499
:1015D000F6CFF801808189830E5F1F4FE4CF280189
:1015E000F2E04F0E511CF801C080D180692D70E0EF
:1015F00036FC02C06FEF7FEFC6010E941D0C4C014C
:101600008201D5CFB70180E290E00E94280C2A9495
:101610002814190409F0B0F7CECFF60137FC8591F4
:1016200037FE81916F01B70190E00E94280C5110A4
:101630005A94F1E08F1A9108BFCF843619F0893699
:1016400009F077C0F80137FE6BC06081718182813B
:1016500093810C5F1F4FF32DFF763F2E97FF09C03C
:1016600090958095709561957F4F8F4F9F4F6894AF
:1016700037F82AE030E0A5010E94580CC82ECA189D
:101680008C2C432C36FE0CC0E89440F8C91440F46E
:1016900034FE05C032FC03C0F32DFE7E4F2E892C94
:1016A00044FE95C0FE01EC0DF11D8081803309F0F0
:1016B00087C0242D297E422E842D8870582E43FC0D
:1016C00095C040FE8FC09C2C821418F42C0C922CD8
:1016D000981844FE91C0B70180E390E00E94280C66
:1016E00042FE09C088E790E041FE02C088E590E034
:1016F000B7010E94280CC91408F48AC0CA94D12CDE
:101700009FEFC91AD90ACA0CDB1CF60182916F013E
:10171000B70190E00E94280CAC14BD04B1F74FCF84
:1017200060817181072E000C880B990B0E5F1F4F93
:1017300092CFD32CE894D4F82AE030E0853739F101
:10174000232D297FD22E8F3601F148F48835A9F058
:10175000F701868197812B96E2E10C94D20C8037B9
:1017600049F08837A9F7D4FE02C06894D2F820E186
:1017700030E00DC06894D4F8F6CF34FE03C0822F59
:101780008660D82E20E132E002C028E030E0F80187
:10179000D7FE0FC060817181828193810C5F1F4FE2
:1017A000A5010E94580CC82ECA183D2CE89437F8A1
:1017B00067CF6081718190E080E00E5F1F4FF0CFB6
:1017C00042FC02C0839478CF8394839475CF842D98
:1017D000867809F471CFF6CFB70180E290E00E94DD
:1017E000280C83948214C0F3512C73CF522C5818B8
:1017F000821408F46ECFF8CF842D867809F47BCF5D
:101800008BE241FE80E247FC8DE2B70190E071CFB0
:10181000B70180E390E00E94280C9A946CCF8FEF80
:101820009FEF99CFFC010590615070400110D8F7EF
:10183000809590958E0F9F1F0895FC016150704018
:1018400001900110D8F7809590958E0F9F1F0895F5
:101850000F931F93CF93DF93182F092FEB018B81E9
:1018600081FD09C01FEF0FEF812F902FDF91CF91E6
:101870001F910F91089582FF14C02E813F818C81AA
:101880009D81281739073CF4E881F981CF01019641
:101890009983888310838E819F8101969F838E8395
:1018A000E3CFE885F985812F0995892BA1F3DACF5C
:1018B000FA01AA27283051F1203181F1E8946F9381
:1018C0006E7F6E5F7F4F8F4F9F4FAF4FB1E03ED027
:1018D000B4E03CD0670F781F891F9A1FA11D680FC5
:1018E000791F8A1F911DA11D6A0F711D811D911DF8
:1018F000A11D20D009F468943F912AE0269F11246D
:101900003019305D3193DEF6CF010895462F4770D0
:10191000405D4193B3E00FD0C9F7F6CF462F4F702B
:10192000405D4A3318F0495D31FD4052419302D089
:10193000A9F7EACFB4E0A69597958795779567952F
:10194000BA95C9F700976105710508959B01AC012F
:101950000A2E06945795479537952795BA95C9F756
:10196000620F731F841F951FA01D08952F923F9231
:101970004F925F926F927F928F929F92AF92BF929F
:10198000CF92DF92EF92FF920F931F93CF93DF934B
:10199000CDB7DEB7CA1BDB0B0FB6F894DEBF0FBEA8
:1019A000CDBF09942A88398848885F846E847D84F5
:1019B0008C849B84AA84B984C884DF80EE80FD80F7
:1019C0000C811B81AA81B981CE0FD11D0FB6F8946D
:0E19D000DEBF0FBECDBFED010895F894FFCF2E
:1019DE00000000002003F302E303C902EC02D90267
:1019EE00CA0200000000B2038E00E3037B01707296
:1019FE00756562610054696D6572002073656720BC
:101A0E006D696E20686F720020302564203A203098
:101A1E002564203A2030256400202564203A2025B4
:101A2E0064203A20256400300074696D65206F765D
:041A3E0065720000CD
:00000001FF
